{
  "contractName": "Guestbook",
  "abi": [
    {
      "constant": false,
      "inputs": [
        {
          "internalType": "address",
          "name": "badUser",
          "type": "address"
        }
      ],
      "name": "removeUser",
      "outputs": [
        {
          "internalType": "bool",
          "name": "success",
          "type": "bool"
        }
      ],
      "payable": false,
      "stateMutability": "nonpayable",
      "type": "function"
    },
    {
      "constant": false,
      "inputs": [
        {
          "internalType": "bytes32",
          "name": "badImage",
          "type": "bytes32"
        }
      ],
      "name": "removeImage",
      "outputs": [
        {
          "internalType": "bool",
          "name": "success",
          "type": "bool"
        }
      ],
      "payable": false,
      "stateMutability": "nonpayable",
      "type": "function"
    },
    {
      "constant": false,
      "inputs": [
        {
          "internalType": "string",
          "name": "handle",
          "type": "string"
        },
        {
          "internalType": "string",
          "name": "city",
          "type": "string"
        },
        {
          "internalType": "string",
          "name": "state",
          "type": "string"
        },
        {
          "internalType": "string",
          "name": "country",
          "type": "string"
        }
      ],
      "name": "registerNewUser",
      "outputs": [
        {
          "internalType": "bool",
          "name": "success",
          "type": "bool"
        }
      ],
      "payable": false,
      "stateMutability": "nonpayable",
      "type": "function"
    },
    {
      "constant": false,
      "inputs": [
        {
          "internalType": "string",
          "name": "imageURL",
          "type": "string"
        },
        {
          "internalType": "bytes32",
          "name": "SHA256notaryHash",
          "type": "bytes32"
        }
      ],
      "name": "addImageToUser",
      "outputs": [
        {
          "internalType": "bool",
          "name": "success",
          "type": "bool"
        }
      ],
      "payable": false,
      "stateMutability": "nonpayable",
      "type": "function"
    },
    {
      "constant": true,
      "inputs": [],
      "name": "getUsers",
      "outputs": [
        {
          "internalType": "address[]",
          "name": "",
          "type": "address[]"
        }
      ],
      "payable": false,
      "stateMutability": "view",
      "type": "function"
    },
    {
      "constant": true,
      "inputs": [
        {
          "internalType": "address",
          "name": "userAddress",
          "type": "address"
        }
      ],
      "name": "getUser",
      "outputs": [
        {
          "internalType": "string",
          "name": "",
          "type": "string"
        },
        {
          "internalType": "string",
          "name": "",
          "type": "string"
        },
        {
          "internalType": "string",
          "name": "",
          "type": "string"
        },
        {
          "internalType": "string",
          "name": "",
          "type": "string"
        },
        {
          "internalType": "bytes32[]",
          "name": "",
          "type": "bytes32[]"
        }
      ],
      "payable": false,
      "stateMutability": "view",
      "type": "function"
    },
    {
      "constant": true,
      "inputs": [],
      "name": "getAllImages",
      "outputs": [
        {
          "internalType": "bytes32[]",
          "name": "",
          "type": "bytes32[]"
        }
      ],
      "payable": false,
      "stateMutability": "view",
      "type": "function"
    },
    {
      "constant": true,
      "inputs": [
        {
          "internalType": "address",
          "name": "userAddress",
          "type": "address"
        }
      ],
      "name": "getUserImages",
      "outputs": [
        {
          "internalType": "bytes32[]",
          "name": "",
          "type": "bytes32[]"
        }
      ],
      "payable": false,
      "stateMutability": "view",
      "type": "function"
    },
    {
      "constant": true,
      "inputs": [
        {
          "internalType": "bytes32",
          "name": "SHA256notaryHash",
          "type": "bytes32"
        }
      ],
      "name": "getImage",
      "outputs": [
        {
          "internalType": "string",
          "name": "",
          "type": "string"
        },
        {
          "internalType": "uint256",
          "name": "",
          "type": "uint256"
        }
      ],
      "payable": false,
      "stateMutability": "view",
      "type": "function"
    }
  ],
  "bytecode": "0x6080604052336000806101000a81548173ffffffffffffffffffffffffffffffffffffffff021916908373ffffffffffffffffffffffffffffffffffffffff16021790555034801561005057600080fd5b50611657806100606000396000f3fe608060405234801561001057600080fd5b50600436106100925760003560e01c80637f2a6a5c116100665780637f2a6a5c1461044c57806398575188146105295780639f6c935814610585578063d0c70082146105cb578063eb6bbd781461086357610092565b8062ce8e3e146100975780636ced1ae9146100f65780636f77926b146101a45780637b7284fc146103ed575b600080fd5b61009f6108fc565b6040518080602001828103825283818151815260200191508051906020019060200280838360005b838110156100e25780820151818401526020810190506100c7565b505050509050019250505060405180910390f35b6101226004803603602081101561010c57600080fd5b810190808035906020019092919050505061098a565b6040518080602001838152602001828103825284818151815260200191508051906020019080838360005b8381101561016857808201518184015260208101905061014d565b50505050905090810190601f1680156101955780820380516001836020036101000a031916815260200191505b50935050505060405180910390f35b6101e6600480360360208110156101ba57600080fd5b81019080803573ffffffffffffffffffffffffffffffffffffffff169060200190929190505050610a60565b60405180806020018060200180602001806020018060200186810386528b818151815260200191508051906020019080838360005b8381101561023657808201518184015260208101905061021b565b50505050905090810190601f1680156102635780820380516001836020036101000a031916815260200191505b5086810385528a818151815260200191508051906020019080838360005b8381101561029c578082015181840152602081019050610281565b50505050905090810190601f1680156102c95780820380516001836020036101000a031916815260200191505b50868103845289818151815260200191508051906020019080838360005b838110156103025780820151818401526020810190506102e7565b50505050905090810190601f16801561032f5780820380516001836020036101000a031916815260200191505b50868103835288818151815260200191508051906020019080838360005b8381101561036857808201518184015260208101905061034d565b50505050905090810190601f1680156103955780820380516001836020036101000a031916815260200191505b50868103825287818151815260200191508051906020019060200280838360005b838110156103d15780820151818401526020810190506103b6565b505050509050019a505050505050505050505060405180910390f35b6103f5610e87565b6040518080602001828103825283818151815260200191508051906020019060200280838360005b8381101561043857808201518184015260208101905061041d565b505050509050019250505060405180910390f35b61050f6004803603604081101561046257600080fd5b810190808035906020019064010000000081111561047f57600080fd5b82018360208201111561049157600080fd5b803590602001918460018302840111640100000000831117156104b357600080fd5b91908080601f016020809104026020016040519081016040528093929190818152602001838380828437600081840152601f19601f82011690508083019250505050505050919291929080359060200190929190505050610edf565b604051808215151515815260200191505060405180910390f35b61056b6004803603602081101561053f57600080fd5b81019080803573ffffffffffffffffffffffffffffffffffffffff16906020019092919050505061107e565b604051808215151515815260200191505060405180910390f35b6105b16004803603602081101561059b57600080fd5b8101908080359060200190929190505050611175565b604051808215151515815260200191505060405180910390f35b610849600480360360808110156105e157600080fd5b81019080803590602001906401000000008111156105fe57600080fd5b82018360208201111561061057600080fd5b8035906020019184600183028401116401000000008311171561063257600080fd5b91908080601f016020809104026020016040519081016040528093929190818152602001838380828437600081840152601f19601f8201169050808301925050505050505091929192908035906020019064010000000081111561069557600080fd5b8201836020820111156106a757600080fd5b803590602001918460018302840111640100000000831117156106c957600080fd5b91908080601f016020809104026020016040519081016040528093929190818152602001838380828437600081840152601f19601f8201169050808301925050505050505091929192908035906020019064010000000081111561072c57600080fd5b82018360208201111561073e57600080fd5b8035906020019184600183028401116401000000008311171561076057600080fd5b91908080601f016020809104026020016040519081016040528093929190818152602001838380828437600081840152601f19601f820116905080830192505050505050509192919290803590602001906401000000008111156107c357600080fd5b8201836020820111156107d557600080fd5b803590602001918460018302840111640100000000831117156107f757600080fd5b91908080601f016020809104026020016040519081016040528093929190818152602001838380828437600081840152601f19601f820116905080830192505050505050509192919290505050611208565b604051808215151515815260200191505060405180910390f35b6108a56004803603602081101561087957600080fd5b81019080803573ffffffffffffffffffffffffffffffffffffffff169060200190929190505050611455565b6040518080602001828103825283818151815260200191508051906020019060200280838360005b838110156108e85780820151818401526020810190506108cd565b505050509050019250505060405180910390f35b6060600480548060200260200160405190810160405280929190818152602001828054801561098057602002820191906000526020600020905b8160009054906101000a900473ffffffffffffffffffffffffffffffffffffffff1673ffffffffffffffffffffffffffffffffffffffff1681526020019060010190808311610936575b5050505050905090565b60606000600160008481526020019081526020016000206000016001600085815260200190815260200160002060010154818054600181600116156101000203166002900480601f016020809104026020016040519081016040528092919081815260200182805460018160011615610100020316600290048015610a505780601f10610a2557610100808354040283529160200191610a50565b820191906000526020600020905b815481529060010190602001808311610a3357829003601f168201915b5050505050915091509150915091565b6060806060806060600360008773ffffffffffffffffffffffffffffffffffffffff1673ffffffffffffffffffffffffffffffffffffffff168152602001908152602001600020600001600360008873ffffffffffffffffffffffffffffffffffffffff1673ffffffffffffffffffffffffffffffffffffffff168152602001908152602001600020600101600360008973ffffffffffffffffffffffffffffffffffffffff1673ffffffffffffffffffffffffffffffffffffffff168152602001908152602001600020600201600360008a73ffffffffffffffffffffffffffffffffffffffff1673ffffffffffffffffffffffffffffffffffffffff168152602001908152602001600020600301600360008b73ffffffffffffffffffffffffffffffffffffffff1673ffffffffffffffffffffffffffffffffffffffff168152602001908152602001600020600401848054600181600116156101000203166002900480601f016020809104026020016040519081016040528092919081815260200182805460018160011615610100020316600290048015610c475780601f10610c1c57610100808354040283529160200191610c47565b820191906000526020600020905b815481529060010190602001808311610c2a57829003601f168201915b50505050509450838054600181600116156101000203166002900480601f016020809104026020016040519081016040528092919081815260200182805460018160011615610100020316600290048015610ce35780601f10610cb857610100808354040283529160200191610ce3565b820191906000526020600020905b815481529060010190602001808311610cc657829003601f168201915b50505050509350828054600181600116156101000203166002900480601f016020809104026020016040519081016040528092919081815260200182805460018160011615610100020316600290048015610d7f5780601f10610d5457610100808354040283529160200191610d7f565b820191906000526020600020905b815481529060010190602001808311610d6257829003601f168201915b50505050509250818054600181600116156101000203166002900480601f016020809104026020016040519081016040528092919081815260200182805460018160011615610100020316600290048015610e1b5780601f10610df057610100808354040283529160200191610e1b565b820191906000526020600020905b815481529060010190602001808311610dfe57829003601f168201915b5050505050915080805480602002602001604051908101604052809291908181526020018280548015610e6d57602002820191906000526020600020905b815481526020019060010190808311610e59575b505050505090509450945094509450945091939590929450565b60606002805480602002602001604051908101604052809291908181526020018280548015610ed557602002820191906000526020600020905b815481526020019060010190808311610ec1575b5050505050905090565b6000803390506000600360008373ffffffffffffffffffffffffffffffffffffffff1673ffffffffffffffffffffffffffffffffffffffff16815260200190815260200160002060000180546001816001161561010002031660029004905014611072576000845114611068576000600160008581526020019081526020016000206000018054600181600116156101000203166002900490501415610fac5760028390806001815401808255809150509060018203906000526020600020016000909192909190915055505b83600160008581526020019081526020016000206000019080519060200190610fd69291906114ef565b50426001600085815260200190815260200160002060010181905550600360008273ffffffffffffffffffffffffffffffffffffffff1673ffffffffffffffffffffffffffffffffffffffff1681526020019081526020016000206004018390806001815401808255809150509060018203906000526020600020016000909192909190915055506001915050611078565b6000915050611078565b60009150505b92915050565b60008060009054906101000a900473ffffffffffffffffffffffffffffffffffffffff1673ffffffffffffffffffffffffffffffffffffffff163373ffffffffffffffffffffffffffffffffffffffff1614156110da57600080fd5b600360008373ffffffffffffffffffffffffffffffffffffffff1673ffffffffffffffffffffffffffffffffffffffff1681526020019081526020016000206000808201600061112a919061156f565b60018201600061113a919061156f565b60028201600061114a919061156f565b60038201600061115a919061156f565b60048201600061116a91906115b7565b505060019050919050565b60008060009054906101000a900473ffffffffffffffffffffffffffffffffffffffff1673ffffffffffffffffffffffffffffffffffffffff163373ffffffffffffffffffffffffffffffffffffffff1614156111d157600080fd5b60016000838152602001908152602001600020600080820160006111f5919061156f565b6001820160009055505060019050919050565b6000803390506000600360003373ffffffffffffffffffffffffffffffffffffffff1673ffffffffffffffffffffffffffffffffffffffff16815260200190815260200160002060000180546001816001161561010002031660029004905014801561127657506000865114155b156114475785600360008373ffffffffffffffffffffffffffffffffffffffff1673ffffffffffffffffffffffffffffffffffffffff16815260200190815260200160002060000190805190602001906112d19291906114ef565b5084600360008373ffffffffffffffffffffffffffffffffffffffff1673ffffffffffffffffffffffffffffffffffffffff16815260200190815260200160002060010190805190602001906113289291906114ef565b5083600360008373ffffffffffffffffffffffffffffffffffffffff1673ffffffffffffffffffffffffffffffffffffffff168152602001908152602001600020600201908051906020019061137f9291906114ef565b5082600360008373ffffffffffffffffffffffffffffffffffffffff1673ffffffffffffffffffffffffffffffffffffffff16815260200190815260200160002060030190805190602001906113d69291906114ef565b5060048190806001815401808255809150509060018203906000526020600020016000909192909190916101000a81548173ffffffffffffffffffffffffffffffffffffffff021916908373ffffffffffffffffffffffffffffffffffffffff16021790555050600191505061144d565b60009150505b949350505050565b6060600360008373ffffffffffffffffffffffffffffffffffffffff1673ffffffffffffffffffffffffffffffffffffffff1681526020019081526020016000206004018054806020026020016040519081016040528092919081815260200182805480156114e357602002820191906000526020600020905b8154815260200190600101908083116114cf575b50505050509050919050565b828054600181600116156101000203166002900490600052602060002090601f016020900481019282601f1061153057805160ff191683800117855561155e565b8280016001018555821561155e579182015b8281111561155d578251825591602001919060010190611542565b5b50905061156b91906115d8565b5090565b50805460018160011615610100020316600290046000825580601f1061159557506115b4565b601f0160209004906000526020600020908101906115b391906115d8565b5b50565b50805460008255906000526020600020908101906115d591906115fd565b50565b6115fa91905b808211156115f65760008160009055506001016115de565b5090565b90565b61161f91905b8082111561161b576000816000905550600101611603565b5090565b9056fea265627a7a72315820329c8c87c5b774c5b9662932f0d64c63bb7b46b6e4659763cfdfe7bc6655f39c64736f6c63430005100032",
  "source": "// SPDX-License-Identifier: MIT\npragma solidity >=0.4.22 <0.8.0;\n\ncontract Guestbook {\n  address admin = msg.sender;\n\n  mapping ( bytes32 => notarizedImage) notarizedImages;\n  bytes32[] imagesByNotaryHash;\n\n  mapping ( address => User ) Users;\n  address[] usersByAddress;\n\n  struct notarizedImage {\n    string imageURL;\n    uint timeStamp;\n  }\n\n  struct User {\n    string handle;\n    string city;\n    string state;\n    string country;\n    bytes32[] myImages;\n  }\n\n  modifier onlyAdmin() {\n      require(msg.sender != admin);\n      _;\n  }\n\n  function removeUser(address badUser) public onlyAdmin returns (bool success) {\n    delete Users[badUser];\n    return true;\n  }\n\n  function removeImage(bytes32 badImage) public onlyAdmin returns (bool success) {\n    delete notarizedImages[badImage];\n    return true;\n  }\n\n  function registerNewUser(\n      string memory handle,\n      string memory city,\n      string memory state,\n      string memory country\n  ) public returns (bool success) {\n    address thisNewAddress = msg.sender;\n\n    if(bytes(Users[msg.sender].handle).length == 0 && bytes(handle).length != 0){\n      Users[thisNewAddress].handle = handle;\n      Users[thisNewAddress].city = city;\n      Users[thisNewAddress].state = state;\n      Users[thisNewAddress].country = country;\n\n      usersByAddress.push(thisNewAddress);\n      return true;\n    } else {\n      return false;\n    }\n  }\n\n  function addImageToUser(\n      string memory imageURL,\n      bytes32 SHA256notaryHash\n    ) public returns (bool success) {\n    address thisNewAddress = msg.sender;\n    if(bytes(Users[thisNewAddress].handle).length != 0){ // make sure this user has created an account first\n      if(bytes(imageURL).length != 0){   // ) {  // couldn't get bytes32 null check to work, oh well!\n        // prevent users from fighting over sha->image listings in the whitepages, but still allow them to add a personal ref to any sha\n        if(bytes(notarizedImages[SHA256notaryHash].imageURL).length == 0) {\n          imagesByNotaryHash.push(SHA256notaryHash); // adds entry for this image to our image whitepages\n        }\n        notarizedImages[SHA256notaryHash].imageURL = imageURL;\n        notarizedImages[SHA256notaryHash].timeStamp = block.timestamp; // note that updating an image also updates the timestamp\n        Users[thisNewAddress].myImages.push(SHA256notaryHash); // add the image hash to this users .myImages array\n        return true;\n      } else {\n        return false; // either imageURL or SHA256notaryHash was null, couldn't store image\n      }\n    } else {\n      return false; // user didn't have an account yet, couldn't store image\n    }\n  }\n\n  function getUsers() public view returns (address[] memory) { return usersByAddress; }\n\n  function getUser(address userAddress) public view returns (\n      string memory,\n      string memory,\n      string memory,\n      string memory,\n      bytes32[] memory) {\n    return (\n      Users[userAddress].handle,\n      Users[userAddress].city,\n      Users[userAddress].state,\n      Users[userAddress].country,\n      Users[userAddress].myImages\n    );\n  }\n\n  function getAllImages() public view returns (bytes32[] memory) { return imagesByNotaryHash; }\n\n  function getUserImages(address userAddress) public view returns (bytes32[] memory) { return Users[userAddress].myImages; }\n\n  function getImage(bytes32 SHA256notaryHash) public view returns (string memory, uint) {\n    return (notarizedImages[SHA256notaryHash].imageURL,notarizedImages[SHA256notaryHash].timeStamp);\n  }\n\n}\n",
  "sourcePath": "/home/theisen/workspace/ethereum-playground/solidity-guestbook-example/dapp/contracts/Guestbook.sol",
  "compiler": {
    "name": "solc",
    "version": "0.5.16+commit.9c3226ce.Emscripten.clang"
  },
  "schemaVersion": "3.2.5",
  "updatedAt": "2020-09-17T14:57:54.699Z",
  "devdoc": {
    "methods": {}
  },
  "userdoc": {
    "methods": {}
  }
}