{
  "contractName": "Geekt",
  "abi": [
    {
      "inputs": [],
      "payable": true,
      "stateMutability": "payable",
      "type": "constructor"
    },
    {
      "constant": false,
      "inputs": [
        {
          "name": "badUser",
          "type": "address"
        }
      ],
      "name": "removeUser",
      "outputs": [
        {
          "name": "success",
          "type": "bool"
        }
      ],
      "payable": false,
      "stateMutability": "nonpayable",
      "type": "function"
    },
    {
      "constant": false,
      "inputs": [
        {
          "name": "badImage",
          "type": "bytes32"
        }
      ],
      "name": "removeImage",
      "outputs": [
        {
          "name": "success",
          "type": "bool"
        }
      ],
      "payable": false,
      "stateMutability": "nonpayable",
      "type": "function"
    },
    {
      "constant": false,
      "inputs": [
        {
          "name": "handle",
          "type": "string"
        },
        {
          "name": "city",
          "type": "bytes32"
        },
        {
          "name": "state",
          "type": "bytes32"
        },
        {
          "name": "country",
          "type": "bytes32"
        }
      ],
      "name": "registerNewUser",
      "outputs": [
        {
          "name": "success",
          "type": "bool"
        }
      ],
      "payable": false,
      "stateMutability": "nonpayable",
      "type": "function"
    },
    {
      "constant": false,
      "inputs": [
        {
          "name": "imageURL",
          "type": "string"
        },
        {
          "name": "SHA256notaryHash",
          "type": "bytes32"
        }
      ],
      "name": "addImageToUser",
      "outputs": [
        {
          "name": "success",
          "type": "bool"
        }
      ],
      "payable": false,
      "stateMutability": "nonpayable",
      "type": "function"
    },
    {
      "constant": true,
      "inputs": [],
      "name": "getUsers",
      "outputs": [
        {
          "name": "",
          "type": "address[]"
        }
      ],
      "payable": false,
      "stateMutability": "view",
      "type": "function"
    },
    {
      "constant": true,
      "inputs": [
        {
          "name": "userAddress",
          "type": "address"
        }
      ],
      "name": "getUser",
      "outputs": [
        {
          "name": "",
          "type": "string"
        },
        {
          "name": "",
          "type": "bytes32"
        },
        {
          "name": "",
          "type": "bytes32"
        },
        {
          "name": "",
          "type": "bytes32"
        },
        {
          "name": "",
          "type": "bytes32[]"
        }
      ],
      "payable": false,
      "stateMutability": "view",
      "type": "function"
    },
    {
      "constant": true,
      "inputs": [],
      "name": "getAllImages",
      "outputs": [
        {
          "name": "",
          "type": "bytes32[]"
        }
      ],
      "payable": false,
      "stateMutability": "view",
      "type": "function"
    },
    {
      "constant": true,
      "inputs": [
        {
          "name": "userAddress",
          "type": "address"
        }
      ],
      "name": "getUserImages",
      "outputs": [
        {
          "name": "",
          "type": "bytes32[]"
        }
      ],
      "payable": false,
      "stateMutability": "view",
      "type": "function"
    },
    {
      "constant": true,
      "inputs": [
        {
          "name": "SHA256notaryHash",
          "type": "bytes32"
        }
      ],
      "name": "getImage",
      "outputs": [
        {
          "name": "",
          "type": "string"
        },
        {
          "name": "",
          "type": "uint256"
        }
      ],
      "payable": false,
      "stateMutability": "view",
      "type": "function"
    }
  ],
  "bytecode": "0x6080604052336000806101000a81548173ffffffffffffffffffffffffffffffffffffffff021916908373ffffffffffffffffffffffffffffffffffffffff16021790555061115e806100536000396000f300608060405260043610610098576000357c0100000000000000000000000000000000000000000000000000000000900463ffffffff168062ce8e3e1461009d578063124b1789146101095780636ced1ae9146101b45780636f77926b146102655780637b7284fc146103965780637f2a6a5c1461040257806398575188146104915780639f6c9358146104ec578063eb6bbd7814610535575b600080fd5b3480156100a957600080fd5b506100b26105cd565b6040518080602001828103825283818151815260200191508051906020019060200280838360005b838110156100f55780820151818401526020810190506100da565b505050509050019250505060405180910390f35b34801561011557600080fd5b5061019a600480360381019080803590602001908201803590602001908080601f016020809104026020016040519081016040528093929190818152602001838380828437820191505050505050919291929080356000191690602001909291908035600019169060200190929190803560001916906020019092919050505061065b565b604051808215151515815260200191505060405180910390f35b3480156101c057600080fd5b506101e36004803603810190808035600019169060200190929190505050610883565b6040518080602001838152602001828103825284818151815260200191508051906020019080838360005b8381101561022957808201518184015260208101905061020e565b50505050905090810190601f1680156102565780820380516001836020036101000a031916815260200191505b50935050505060405180910390f35b34801561027157600080fd5b506102a6600480360381019080803573ffffffffffffffffffffffffffffffffffffffff169060200190929190505050610969565b604051808060200186600019166000191681526020018560001916600019168152602001846000191660001916815260200180602001838103835288818151815260200191508051906020019080838360005b838110156103145780820151818401526020810190506102f9565b50505050905090810190601f1680156103415780820380516001836020036101000a031916815260200191505b50838103825284818151815260200191508051906020019060200280838360005b8381101561037d578082015181840152602081019050610362565b5050505090500197505050505050505060405180910390f35b3480156103a257600080fd5b506103ab610bc4565b6040518080602001828103825283818151815260200191508051906020019060200280838360005b838110156103ee5780820151818401526020810190506103d3565b505050509050019250505060405180910390f35b34801561040e57600080fd5b50610477600480360381019080803590602001908201803590602001908080601f01602080910402602001604051908101604052809392919081815260200183838082843782019150505050505091929192908035600019169060200190929190505050610c20565b604051808215151515815260200191505060405180910390f35b34801561049d57600080fd5b506104d2600480360381019080803573ffffffffffffffffffffffffffffffffffffffff169060200190929190505050610de5565b604051808215151515815260200191505060405180910390f35b3480156104f857600080fd5b5061051b6004803603810190808035600019169060200190929190505050610ec5565b604051808215151515815260200191505060405180910390f35b34801561054157600080fd5b50610576600480360381019080803573ffffffffffffffffffffffffffffffffffffffff169060200190929190505050610f61565b6040518080602001828103825283818151815260200191508051906020019060200280838360005b838110156105b957808201518184015260208101905061059e565b505050509050019250505060405180910390f35b6060600480548060200260200160405190810160405280929190818152602001828054801561065157602002820191906000526020600020905b8160009054906101000a900473ffffffffffffffffffffffffffffffffffffffff1673ffffffffffffffffffffffffffffffffffffffff1681526020019060010190808311610607575b5050505050905090565b6000803390506000600360003373ffffffffffffffffffffffffffffffffffffffff1673ffffffffffffffffffffffffffffffffffffffff1681526020019081526020016000206000018054600181600116156101000203166002900490501480156106c957506000865114155b156108755785600360008373ffffffffffffffffffffffffffffffffffffffff1673ffffffffffffffffffffffffffffffffffffffff1681526020019081526020016000206000019080519060200190610724929190610fff565b5084600360008373ffffffffffffffffffffffffffffffffffffffff1673ffffffffffffffffffffffffffffffffffffffff168152602001908152602001600020600101816000191690555083600360008373ffffffffffffffffffffffffffffffffffffffff1673ffffffffffffffffffffffffffffffffffffffff168152602001908152602001600020600201816000191690555082600360008373ffffffffffffffffffffffffffffffffffffffff1673ffffffffffffffffffffffffffffffffffffffff168152602001908152602001600020600301816000191690555060048190806001815401808255809150509060018203906000526020600020016000909192909190916101000a81548173ffffffffffffffffffffffffffffffffffffffff021916908373ffffffffffffffffffffffffffffffffffffffff160217905550506001915061087a565b600091505b50949350505050565b6060600060016000846000191660001916815260200190815260200160002060000160016000856000191660001916815260200190815260200160002060010154818054600181600116156101000203166002900480601f0160208091040260200160405190810160405280929190818152602001828054600181600116156101000203166002900480156109595780601f1061092e57610100808354040283529160200191610959565b820191906000526020600020905b81548152906001019060200180831161093c57829003601f168201915b5050505050915091509150915091565b606060008060006060600360008773ffffffffffffffffffffffffffffffffffffffff1673ffffffffffffffffffffffffffffffffffffffff168152602001908152602001600020600001600360008873ffffffffffffffffffffffffffffffffffffffff1673ffffffffffffffffffffffffffffffffffffffff16815260200190815260200160002060010154600360008973ffffffffffffffffffffffffffffffffffffffff1673ffffffffffffffffffffffffffffffffffffffff16815260200190815260200160002060020154600360008a73ffffffffffffffffffffffffffffffffffffffff1673ffffffffffffffffffffffffffffffffffffffff16815260200190815260200160002060030154600360008b73ffffffffffffffffffffffffffffffffffffffff1673ffffffffffffffffffffffffffffffffffffffff168152602001908152602001600020600401848054600181600116156101000203166002900480601f016020809104026020016040519081016040528092919081815260200182805460018160011615610100020316600290048015610b545780601f10610b2957610100808354040283529160200191610b54565b820191906000526020600020905b815481529060010190602001808311610b3757829003601f168201915b5050505050945080805480602002602001604051908101604052809291908181526020018280548015610baa57602002820191906000526020600020905b81546000191681526020019060010190808311610b92575b505050505090509450945094509450945091939590929450565b60606002805480602002602001604051908101604052809291908181526020018280548015610c1657602002820191906000526020600020905b81546000191681526020019060010190808311610bfe575b5050505050905090565b6000803390506000600360008373ffffffffffffffffffffffffffffffffffffffff1673ffffffffffffffffffffffffffffffffffffffff168152602001908152602001600020600001805460018160011615610100020316600290049050141515610dd95760008451141515610dd05760006001600085600019166000191681526020019081526020016000206000018054600181600116156101000203166002900490501415610cff5760028390806001815401808255809150509060018203906000526020600020016000909192909190915090600019169055505b836001600085600019166000191681526020019081526020016000206000019080519060200190610d31929190610fff565b504260016000856000191660001916815260200190815260200160002060010181905550600360008273ffffffffffffffffffffffffffffffffffffffff1673ffffffffffffffffffffffffffffffffffffffff16815260200190815260200160002060040183908060018154018082558091505090600182039060005260206000200160009091929091909150906000191690555060019150610dde565b60009150610dde565b600091505b5092915050565b60008060009054906101000a900473ffffffffffffffffffffffffffffffffffffffff1673ffffffffffffffffffffffffffffffffffffffff163373ffffffffffffffffffffffffffffffffffffffff16141515610e4257600080fd5b600360008373ffffffffffffffffffffffffffffffffffffffff1673ffffffffffffffffffffffffffffffffffffffff16815260200190815260200160002060008082016000610e92919061107f565b600182016000905560028201600090556003820160009055600482016000610eba91906110c7565b505060019050919050565b60008060009054906101000a900473ffffffffffffffffffffffffffffffffffffffff1673ffffffffffffffffffffffffffffffffffffffff163373ffffffffffffffffffffffffffffffffffffffff16141515610f2257600080fd5b60016000836000191660001916815260200190815260200160002060008082016000610f4e919061107f565b6001820160009055505060019050919050565b6060600360008373ffffffffffffffffffffffffffffffffffffffff1673ffffffffffffffffffffffffffffffffffffffff168152602001908152602001600020600401805480602002602001604051908101604052809291908181526020018280548015610ff357602002820191906000526020600020905b81546000191681526020019060010190808311610fdb575b50505050509050919050565b828054600181600116156101000203166002900490600052602060002090601f016020900481019282601f1061104057805160ff191683800117855561106e565b8280016001018555821561106e579182015b8281111561106d578251825591602001919060010190611052565b5b50905061107b91906110e8565b5090565b50805460018160011615610100020316600290046000825580601f106110a557506110c4565b601f0160209004906000526020600020908101906110c391906110e8565b5b50565b50805460008255906000526020600020908101906110e5919061110d565b50565b61110a91905b808211156111065760008160009055506001016110ee565b5090565b90565b61112f91905b8082111561112b576000816000905550600101611113565b5090565b905600a165627a7a7230582011c1690619d9f0e82a0119385b00ed2fd53adb90aee49e35362f9b27989cf0b90029",
  "source": "pragma solidity ^0.4.4;\n\n// Simple Solidity intro/demo contract for BlockGeeks Article\ncontract Geekt {\n\n  address GeektAdmin;\n\n  mapping ( bytes32 => notarizedImage) notarizedImages; // this allows to look up notarizedImages by their SHA256notaryHash\n  bytes32[] imagesByNotaryHash; // this is like a whitepages of all images, by SHA256notaryHash\n\n  mapping ( address => User ) Users;   // this allows to look up Users by their ethereum address\n  address[] usersByAddress;  // this is like a whitepages of all users, by ethereum address\n\n  struct notarizedImage {\n    string imageURL;\n    uint timeStamp;\n  }\n\n  struct User {\n    string handle;\n    bytes32 city;\n    bytes32 state;\n    bytes32 country;\n    bytes32[] myImages;\n  }\n\n  function Geekt() payable {  // this is the CONSTRUCTOR (same name as contract) it gets called ONCE only when contract is first deployed\n    GeektAdmin = msg.sender;  // just set the admin, so they can remove bad users or images if needed, but nobody else can\n  }\n\n  modifier onlyAdmin() {\n      if (msg.sender != GeektAdmin)\n        throw;\n      // Do not forget the \"_;\"! It will be replaced by the actual function body when the modifier is used.\n      _;\n  }\n\n  function removeUser(address badUser) onlyAdmin returns (bool success) {\n    delete Users[badUser];\n    return true;\n  }\n\n  function removeImage(bytes32 badImage) onlyAdmin returns (bool success) {\n    delete notarizedImages[badImage];\n    return true;\n  }\n\n  function registerNewUser(string handle, bytes32 city, bytes32 state, bytes32 country) returns (bool success) {\n    address thisNewAddress = msg.sender;\n    // don't overwrite existing entries, and make sure handle isn't null\n    if(bytes(Users[msg.sender].handle).length == 0 && bytes(handle).length != 0){\n      Users[thisNewAddress].handle = handle;\n      Users[thisNewAddress].city = city;\n      Users[thisNewAddress].state = state;\n      Users[thisNewAddress].country = country;\n      usersByAddress.push(thisNewAddress);  // adds an entry for this user to the user 'whitepages'\n      return true;\n    } else {\n      return false; // either handle was null, or a user with this handle already existed\n    }\n  }\n\n  function addImageToUser(string imageURL, bytes32 SHA256notaryHash) returns (bool success) {\n    address thisNewAddress = msg.sender;\n    if(bytes(Users[thisNewAddress].handle).length != 0){ // make sure this user has created an account first\n      if(bytes(imageURL).length != 0){   // ) {  // couldn't get bytes32 null check to work, oh well!\n        // prevent users from fighting over sha->image listings in the whitepages, but still allow them to add a personal ref to any sha\n        if(bytes(notarizedImages[SHA256notaryHash].imageURL).length == 0) {\n          imagesByNotaryHash.push(SHA256notaryHash); // adds entry for this image to our image whitepages\n        }\n        notarizedImages[SHA256notaryHash].imageURL = imageURL;\n        notarizedImages[SHA256notaryHash].timeStamp = block.timestamp; // note that updating an image also updates the timestamp\n        Users[thisNewAddress].myImages.push(SHA256notaryHash); // add the image hash to this users .myImages array\n        return true;\n      } else {\n        return false; // either imageURL or SHA256notaryHash was null, couldn't store image\n      }\n      return true;\n    } else {\n      return false; // user didn't have an account yet, couldn't store image\n    }\n  }\n\n  function getUsers() constant returns (address[]) { return usersByAddress; }\n\n  function getUser(address userAddress) constant returns (string,bytes32,bytes32,bytes32,bytes32[]) {\n    return (Users[userAddress].handle,Users[userAddress].city,Users[userAddress].state,Users[userAddress].country,Users[userAddress].myImages);\n  }\n\n  function getAllImages() constant returns (bytes32[]) { return imagesByNotaryHash; }\n\n  function getUserImages(address userAddress) constant returns (bytes32[]) { return Users[userAddress].myImages; }\n\n  function getImage(bytes32 SHA256notaryHash) constant returns (string,uint) {\n    return (notarizedImages[SHA256notaryHash].imageURL,notarizedImages[SHA256notaryHash].timeStamp);\n  }\n\n}\n",
  "sourcePath": "/home/theisen/workspace/ethereum-playground/ethereum-demo-tools/GeektSolidity/contracts/Geekt.sol",
  "compiler": {
    "name": "solc",
    "version": "0.4.26+commit.4563c3fc.Emscripten.clang"
  },
  "schemaVersion": "3.2.5",
  "updatedAt": "2020-09-17T12:15:28.781Z",
  "devdoc": {
    "methods": {}
  },
  "userdoc": {
    "methods": {}
  }
}